{
	"data": {
		"bytecode": {
			"linkReferences": {},
			"object": "608060405234801561001057600080fd5b50610309806100206000396000f3fe608060405234801561001057600080fd5b506004361061004c5760003560e01c8063654b748a146100515780636e9960c31461008b5780638f283970146100af578063ac9fe421146100d7575b600080fd5b6100776004803603602081101561006757600080fd5b50356001600160a01b0316610105565b604080519115158252519081900360200190f35b610093610123565b604080516001600160a01b039092168252519081900360200190f35b6100d5600480360360208110156100c557600080fd5b50356001600160a01b0316610132565b005b6100d5600480360360408110156100ed57600080fd5b506001600160a01b03813516906020013515156101fb565b6001600160a01b031660009081526001602052604090205460ff1690565b6000546001600160a01b031690565b6000546001600160a01b03163314610191576040805162461bcd60e51b815260206004820152601b60248201527f6f6e6c792061646d696e2063616e206368616e67652061646d696e0000000000604482015290519081900360640190fd5b600054604080516001600160a01b039283168152918316602083015280517f7e644d79422f17c01e4894b5f4f588d331ebfa28653d42ae832dc59e38c9798f9281900390910190a1600080546001600160a01b0319166001600160a01b0392909216919091179055565b6000546001600160a01b031633146102445760405162461bcd60e51b815260040180806020018281038252602c8152602001806102a9602c913960400191505060405180910390fd5b6001600160a01b038216600081815260016020908152604091829020805460ff191685151590811790915582519384529083015280517f44f92d27abdf4cfb6a7d712c3af68f3be086d4ca747ab802c36f67d6790060d89281900390910190a1505056fe6f6e6c792061646d696e20697320616c6c6f77656420746f20616464207375706572206f70657261746f7273a265627a7a72305820130c5c825c2a25fc44211d2134095d990221994c0462b26f9086cc59da07b23664736f6c63430005090032",
			"opcodes": "PUSH1 0x80 PUSH1 0x40 MSTORE CALLVALUE DUP1 ISZERO PUSH2 0x10 JUMPI PUSH1 0x0 DUP1 REVERT JUMPDEST POP PUSH2 0x309 DUP1 PUSH2 0x20 PUSH1 0x0 CODECOPY PUSH1 0x0 RETURN INVALID PUSH1 0x80 PUSH1 0x40 MSTORE CALLVALUE DUP1 ISZERO PUSH2 0x10 JUMPI PUSH1 0x0 DUP1 REVERT JUMPDEST POP PUSH1 0x4 CALLDATASIZE LT PUSH2 0x4C JUMPI PUSH1 0x0 CALLDATALOAD PUSH1 0xE0 SHR DUP1 PUSH4 0x654B748A EQ PUSH2 0x51 JUMPI DUP1 PUSH4 0x6E9960C3 EQ PUSH2 0x8B JUMPI DUP1 PUSH4 0x8F283970 EQ PUSH2 0xAF JUMPI DUP1 PUSH4 0xAC9FE421 EQ PUSH2 0xD7 JUMPI JUMPDEST PUSH1 0x0 DUP1 REVERT JUMPDEST PUSH2 0x77 PUSH1 0x4 DUP1 CALLDATASIZE SUB PUSH1 0x20 DUP2 LT ISZERO PUSH2 0x67 JUMPI PUSH1 0x0 DUP1 REVERT JUMPDEST POP CALLDATALOAD PUSH1 0x1 PUSH1 0x1 PUSH1 0xA0 SHL SUB AND PUSH2 0x105 JUMP JUMPDEST PUSH1 0x40 DUP1 MLOAD SWAP2 ISZERO ISZERO DUP3 MSTORE MLOAD SWAP1 DUP2 SWAP1 SUB PUSH1 0x20 ADD SWAP1 RETURN JUMPDEST PUSH2 0x93 PUSH2 0x123 JUMP JUMPDEST PUSH1 0x40 DUP1 MLOAD PUSH1 0x1 PUSH1 0x1 PUSH1 0xA0 SHL SUB SWAP1 SWAP3 AND DUP3 MSTORE MLOAD SWAP1 DUP2 SWAP1 SUB PUSH1 0x20 ADD SWAP1 RETURN JUMPDEST PUSH2 0xD5 PUSH1 0x4 DUP1 CALLDATASIZE SUB PUSH1 0x20 DUP2 LT ISZERO PUSH2 0xC5 JUMPI PUSH1 0x0 DUP1 REVERT JUMPDEST POP CALLDATALOAD PUSH1 0x1 PUSH1 0x1 PUSH1 0xA0 SHL SUB AND PUSH2 0x132 JUMP JUMPDEST STOP JUMPDEST PUSH2 0xD5 PUSH1 0x4 DUP1 CALLDATASIZE SUB PUSH1 0x40 DUP2 LT ISZERO PUSH2 0xED JUMPI PUSH1 0x0 DUP1 REVERT JUMPDEST POP PUSH1 0x1 PUSH1 0x1 PUSH1 0xA0 SHL SUB DUP2 CALLDATALOAD AND SWAP1 PUSH1 0x20 ADD CALLDATALOAD ISZERO ISZERO PUSH2 0x1FB JUMP JUMPDEST PUSH1 0x1 PUSH1 0x1 PUSH1 0xA0 SHL SUB AND PUSH1 0x0 SWAP1 DUP2 MSTORE PUSH1 0x1 PUSH1 0x20 MSTORE PUSH1 0x40 SWAP1 KECCAK256 SLOAD PUSH1 0xFF AND SWAP1 JUMP JUMPDEST PUSH1 0x0 SLOAD PUSH1 0x1 PUSH1 0x1 PUSH1 0xA0 SHL SUB AND SWAP1 JUMP JUMPDEST PUSH1 0x0 SLOAD PUSH1 0x1 PUSH1 0x1 PUSH1 0xA0 SHL SUB AND CALLER EQ PUSH2 0x191 JUMPI PUSH1 0x40 DUP1 MLOAD PUSH3 0x461BCD PUSH1 0xE5 SHL DUP2 MSTORE PUSH1 0x20 PUSH1 0x4 DUP3 ADD MSTORE PUSH1 0x1B PUSH1 0x24 DUP3 ADD MSTORE PUSH32 0x6F6E6C792061646D696E2063616E206368616E67652061646D696E0000000000 PUSH1 0x44 DUP3 ADD MSTORE SWAP1 MLOAD SWAP1 DUP2 SWAP1 SUB PUSH1 0x64 ADD SWAP1 REVERT JUMPDEST PUSH1 0x0 SLOAD PUSH1 0x40 DUP1 MLOAD PUSH1 0x1 PUSH1 0x1 PUSH1 0xA0 SHL SUB SWAP3 DUP4 AND DUP2 MSTORE SWAP2 DUP4 AND PUSH1 0x20 DUP4 ADD MSTORE DUP1 MLOAD PUSH32 0x7E644D79422F17C01E4894B5F4F588D331EBFA28653D42AE832DC59E38C9798F SWAP3 DUP2 SWAP1 SUB SWAP1 SWAP2 ADD SWAP1 LOG1 PUSH1 0x0 DUP1 SLOAD PUSH1 0x1 PUSH1 0x1 PUSH1 0xA0 SHL SUB NOT AND PUSH1 0x1 PUSH1 0x1 PUSH1 0xA0 SHL SUB SWAP3 SWAP1 SWAP3 AND SWAP2 SWAP1 SWAP2 OR SWAP1 SSTORE JUMP JUMPDEST PUSH1 0x0 SLOAD PUSH1 0x1 PUSH1 0x1 PUSH1 0xA0 SHL SUB AND CALLER EQ PUSH2 0x244 JUMPI PUSH1 0x40 MLOAD PUSH3 0x461BCD PUSH1 0xE5 SHL DUP2 MSTORE PUSH1 0x4 ADD DUP1 DUP1 PUSH1 0x20 ADD DUP3 DUP2 SUB DUP3 MSTORE PUSH1 0x2C DUP2 MSTORE PUSH1 0x20 ADD DUP1 PUSH2 0x2A9 PUSH1 0x2C SWAP2 CODECOPY PUSH1 0x40 ADD SWAP2 POP POP PUSH1 0x40 MLOAD DUP1 SWAP2 SUB SWAP1 REVERT JUMPDEST PUSH1 0x1 PUSH1 0x1 PUSH1 0xA0 SHL SUB DUP3 AND PUSH1 0x0 DUP2 DUP2 MSTORE PUSH1 0x1 PUSH1 0x20 SWAP1 DUP2 MSTORE PUSH1 0x40 SWAP2 DUP3 SWAP1 KECCAK256 DUP1 SLOAD PUSH1 0xFF NOT AND DUP6 ISZERO ISZERO SWAP1 DUP2 OR SWAP1 SWAP2 SSTORE DUP3 MLOAD SWAP4 DUP5 MSTORE SWAP1 DUP4 ADD MSTORE DUP1 MLOAD PUSH32 0x44F92D27ABDF4CFB6A7D712C3AF68F3BE086D4CA747AB802C36F67D6790060D8 SWAP3 DUP2 SWAP1 SUB SWAP1 SWAP2 ADD SWAP1 LOG1 POP POP JUMP INVALID PUSH16 0x6E6C792061646D696E20697320616C6C PUSH16 0x77656420746F20616464207375706572 KECCAK256 PUSH16 0x70657261746F7273A265627A7A723058 KECCAK256 SGT 0xc 0x5c DUP3 0x5c 0x2a 0x25 0xfc DIFFICULTY 0x21 SAR 0x21 CALLVALUE MULMOD 0x5d SWAP10 MUL 0x21 SWAP10 0x4c DIV PUSH3 0xB26F90 DUP7 0xcc MSIZE 0xda SMOD 0xb2 CALLDATASIZE PUSH5 0x736F6C6343 STOP SDIV MULMOD STOP ORIGIN "
		},
		"gasEstimates": {
			"creation": {
				"codeDepositCost": "155400",
				"executionCost": "202",
				"totalCost": "155602"
			},
			"external": {
				"changeAdmin(address)": "22302",
				"getAdmin()": "437",
				"isSuperOperator(address)": "532",
				"setSuperOperator(address,bool)": "infinite"
			}
		},
		"methodIdentifiers": {
			"changeAdmin(address)": "8f283970",
			"getAdmin()": "6e9960c3",
			"isSuperOperator(address)": "654b748a",
			"setSuperOperator(address,bool)": "ac9fe421"
		}
	},
	"abi": [
		{
			"constant": true,
			"inputs": [
				{
					"name": "who",
					"type": "address"
				}
			],
			"name": "isSuperOperator",
			"outputs": [
				{
					"name": "",
					"type": "bool"
				}
			],
			"payable": false,
			"stateMutability": "view",
			"type": "function"
		},
		{
			"constant": true,
			"inputs": [],
			"name": "getAdmin",
			"outputs": [
				{
					"name": "",
					"type": "address"
				}
			],
			"payable": false,
			"stateMutability": "view",
			"type": "function"
		},
		{
			"constant": false,
			"inputs": [
				{
					"name": "newAdmin",
					"type": "address"
				}
			],
			"name": "changeAdmin",
			"outputs": [],
			"payable": false,
			"stateMutability": "nonpayable",
			"type": "function"
		},
		{
			"constant": false,
			"inputs": [
				{
					"name": "superOperator",
					"type": "address"
				},
				{
					"name": "enabled",
					"type": "bool"
				}
			],
			"name": "setSuperOperator",
			"outputs": [],
			"payable": false,
			"stateMutability": "nonpayable",
			"type": "function"
		},
		{
			"anonymous": false,
			"inputs": [
				{
					"indexed": false,
					"name": "superOperator",
					"type": "address"
				},
				{
					"indexed": false,
					"name": "enabled",
					"type": "bool"
				}
			],
			"name": "SuperOperator",
			"type": "event"
		},
		{
			"anonymous": false,
			"inputs": [
				{
					"indexed": false,
					"name": "oldAdmin",
					"type": "address"
				},
				{
					"indexed": false,
					"name": "newAdmin",
					"type": "address"
				}
			],
			"name": "AdminChanged",
			"type": "event"
		}
	]
}